{
  "_format": "hh-sol-artifact-1",
  "contractName": "AgentHiringContract",
  "sourceName": "contracts/AgentHiringContract.sol",
  "abi": [
    {
      "inputs": [
        {
          "internalType": "address",
          "name": "_usdt",
          "type": "address"
        }
      ],
      "stateMutability": "nonpayable",
      "type": "constructor"
    },
    {
      "inputs": [],
      "name": "AgentAlreadyExists",
      "type": "error"
    },
    {
      "inputs": [],
      "name": "AgentNotActive",
      "type": "error"
    },
    {
      "inputs": [],
      "name": "EngagementAlreadyCompleted",
      "type": "error"
    },
    {
      "inputs": [],
      "name": "EngagementNotActive",
      "type": "error"
    },
    {
      "inputs": [],
      "name": "InsufficientAllowance",
      "type": "error"
    },
    {
      "inputs": [],
      "name": "InsufficientUSDT",
      "type": "error"
    },
    {
      "inputs": [],
      "name": "InvalidUSDTAddress",
      "type": "error"
    },
    {
      "inputs": [],
      "name": "NotAuthorized",
      "type": "error"
    },
    {
      "inputs": [
        {
          "internalType": "address",
          "name": "owner",
          "type": "address"
        }
      ],
      "name": "OwnableInvalidOwner",
      "type": "error"
    },
    {
      "inputs": [
        {
          "internalType": "address",
          "name": "account",
          "type": "address"
        }
      ],
      "name": "OwnableUnauthorizedAccount",
      "type": "error"
    },
    {
      "inputs": [],
      "name": "ReentrancyGuardReentrantCall",
      "type": "error"
    },
    {
      "inputs": [
        {
          "internalType": "address",
          "name": "token",
          "type": "address"
        }
      ],
      "name": "SafeERC20FailedOperation",
      "type": "error"
    },
    {
      "inputs": [],
      "name": "ZeroRateNotAllowed",
      "type": "error"
    },
    {
      "anonymous": false,
      "inputs": [
        {
          "indexed": true,
          "internalType": "address",
          "name": "agentAddress",
          "type": "address"
        },
        {
          "indexed": false,
          "internalType": "string",
          "name": "agentType",
          "type": "string"
        },
        {
          "indexed": false,
          "internalType": "uint256",
          "name": "ratePerDay",
          "type": "uint256"
        }
      ],
      "name": "AgentRegistered",
      "type": "event"
    },
    {
      "anonymous": false,
      "inputs": [
        {
          "indexed": true,
          "internalType": "uint256",
          "name": "engagementId",
          "type": "uint256"
        },
        {
          "indexed": false,
          "internalType": "uint256",
          "name": "payment",
          "type": "uint256"
        }
      ],
      "name": "EngagementCompleted",
      "type": "event"
    },
    {
      "anonymous": false,
      "inputs": [
        {
          "indexed": true,
          "internalType": "uint256",
          "name": "engagementId",
          "type": "uint256"
        },
        {
          "indexed": false,
          "internalType": "address",
          "name": "user",
          "type": "address"
        },
        {
          "indexed": false,
          "internalType": "address",
          "name": "agent",
          "type": "address"
        },
        {
          "indexed": false,
          "internalType": "uint256",
          "name": "payment",
          "type": "uint256"
        }
      ],
      "name": "EngagementCreated",
      "type": "event"
    },
    {
      "anonymous": false,
      "inputs": [
        {
          "indexed": true,
          "internalType": "address",
          "name": "previousOwner",
          "type": "address"
        },
        {
          "indexed": true,
          "internalType": "address",
          "name": "newOwner",
          "type": "address"
        }
      ],
      "name": "OwnershipTransferred",
      "type": "event"
    },
    {
      "anonymous": false,
      "inputs": [
        {
          "indexed": true,
          "internalType": "address",
          "name": "agent",
          "type": "address"
        },
        {
          "indexed": false,
          "internalType": "uint256",
          "name": "amount",
          "type": "uint256"
        }
      ],
      "name": "PaymentReleased",
      "type": "event"
    },
    {
      "inputs": [],
      "name": "USDT",
      "outputs": [
        {
          "internalType": "contract IERC20",
          "name": "",
          "type": "address"
        }
      ],
      "stateMutability": "view",
      "type": "function"
    },
    {
      "inputs": [
        {
          "internalType": "address",
          "name": "",
          "type": "address"
        }
      ],
      "name": "agents",
      "outputs": [
        {
          "internalType": "address",
          "name": "walletAddress",
          "type": "address"
        },
        {
          "internalType": "string",
          "name": "agentType",
          "type": "string"
        },
        {
          "internalType": "uint256",
          "name": "ratePerDay",
          "type": "uint256"
        },
        {
          "internalType": "bool",
          "name": "isActive",
          "type": "bool"
        },
        {
          "internalType": "uint256",
          "name": "totalEarnings",
          "type": "uint256"
        }
      ],
      "stateMutability": "view",
      "type": "function"
    },
    {
      "inputs": [
        {
          "internalType": "uint256",
          "name": "engagementId",
          "type": "uint256"
        }
      ],
      "name": "completeEngagement",
      "outputs": [],
      "stateMutability": "nonpayable",
      "type": "function"
    },
    {
      "inputs": [
        {
          "internalType": "address",
          "name": "agentAddress",
          "type": "address"
        },
        {
          "internalType": "uint256",
          "name": "duration",
          "type": "uint256"
        }
      ],
      "name": "createEngagement",
      "outputs": [],
      "stateMutability": "nonpayable",
      "type": "function"
    },
    {
      "inputs": [],
      "name": "engagementCount",
      "outputs": [
        {
          "internalType": "uint256",
          "name": "",
          "type": "uint256"
        }
      ],
      "stateMutability": "view",
      "type": "function"
    },
    {
      "inputs": [
        {
          "internalType": "uint256",
          "name": "",
          "type": "uint256"
        }
      ],
      "name": "engagements",
      "outputs": [
        {
          "internalType": "address",
          "name": "user",
          "type": "address"
        },
        {
          "internalType": "address",
          "name": "agent",
          "type": "address"
        },
        {
          "internalType": "uint256",
          "name": "startTime",
          "type": "uint256"
        },
        {
          "internalType": "uint256",
          "name": "duration",
          "type": "uint256"
        },
        {
          "internalType": "uint256",
          "name": "payment",
          "type": "uint256"
        },
        {
          "internalType": "bool",
          "name": "isActive",
          "type": "bool"
        },
        {
          "internalType": "bool",
          "name": "isCompleted",
          "type": "bool"
        }
      ],
      "stateMutability": "view",
      "type": "function"
    },
    {
      "inputs": [
        {
          "internalType": "address",
          "name": "agentAddress",
          "type": "address"
        }
      ],
      "name": "getAgentDetails",
      "outputs": [
        {
          "internalType": "string",
          "name": "agentType",
          "type": "string"
        },
        {
          "internalType": "uint256",
          "name": "ratePerDay",
          "type": "uint256"
        },
        {
          "internalType": "bool",
          "name": "isActive",
          "type": "bool"
        },
        {
          "internalType": "uint256",
          "name": "totalEarnings",
          "type": "uint256"
        }
      ],
      "stateMutability": "view",
      "type": "function"
    },
    {
      "inputs": [],
      "name": "owner",
      "outputs": [
        {
          "internalType": "address",
          "name": "",
          "type": "address"
        }
      ],
      "stateMutability": "view",
      "type": "function"
    },
    {
      "inputs": [
        {
          "internalType": "address",
          "name": "agentAddress",
          "type": "address"
        },
        {
          "internalType": "string",
          "name": "agentType",
          "type": "string"
        },
        {
          "internalType": "uint256",
          "name": "ratePerDay",
          "type": "uint256"
        }
      ],
      "name": "registerAgent",
      "outputs": [],
      "stateMutability": "nonpayable",
      "type": "function"
    },
    {
      "inputs": [],
      "name": "renounceOwnership",
      "outputs": [],
      "stateMutability": "nonpayable",
      "type": "function"
    },
    {
      "inputs": [
        {
          "internalType": "address",
          "name": "newOwner",
          "type": "address"
        }
      ],
      "name": "transferOwnership",
      "outputs": [],
      "stateMutability": "nonpayable",
      "type": "function"
    }
  ],
  "bytecode": "0x60a060405234801561001057600080fd5b5060405161210e38038061210e83398181016040528101906100329190610283565b33600073ffffffffffffffffffffffffffffffffffffffff168173ffffffffffffffffffffffffffffffffffffffff16036100a55760006040517f1e4fbdf700000000000000000000000000000000000000000000000000000000815260040161009c91906102bf565b60405180910390fd5b6100b48161015c60201b60201c565b5060018081905550600073ffffffffffffffffffffffffffffffffffffffff168173ffffffffffffffffffffffffffffffffffffffff1603610122576040517fe447fdc700000000000000000000000000000000000000000000000000000000815260040160405180910390fd5b8073ffffffffffffffffffffffffffffffffffffffff1660808173ffffffffffffffffffffffffffffffffffffffff1681525050506102da565b60008060009054906101000a900473ffffffffffffffffffffffffffffffffffffffff169050816000806101000a81548173ffffffffffffffffffffffffffffffffffffffff021916908373ffffffffffffffffffffffffffffffffffffffff1602179055508173ffffffffffffffffffffffffffffffffffffffff168173ffffffffffffffffffffffffffffffffffffffff167f8be0079c531659141344cd1fd0a4f28419497f9722a3daafe3b4186f6b6457e060405160405180910390a35050565b600080fd5b600073ffffffffffffffffffffffffffffffffffffffff82169050919050565b600061025082610225565b9050919050565b61026081610245565b811461026b57600080fd5b50565b60008151905061027d81610257565b92915050565b60006020828403121561029957610298610220565b5b60006102a78482850161026e565b91505092915050565b6102b981610245565b82525050565b60006020820190506102d460008301846102b0565b92915050565b608051611dfd610311600039600081816107d9015281816109fb01528181610ace01528181610ba80152610f500152611dfd6000f3fe608060405234801561001057600080fd5b50600436106100a95760003560e01c80639edc433e116100715780639edc433e14610144578063b8c0567114610160578063ba0c661b14610193578063c54e44eb146101b1578063f2fde38b146101cf578063fd66091e146101eb576100a9565b80630f2516f4146100ae578063184db5f2146100e457806355028fee14610100578063715018a61461011c5780638da5cb5b14610126575b600080fd5b6100c860048036038101906100c39190611468565b61021f565b6040516100db9796959493929190611500565b60405180910390f35b6100fe60048036038101906100f99190611600565b6102bb565b005b61011a60048036038101906101159190611468565b610575565b005b6101246108db565b005b61012e6108ef565b60405161013b9190611674565b60405180910390f35b61015e6004803603810190610159919061168f565b610918565b005b61017a600480360381019061017591906116cf565b610db9565b60405161018a949392919061178c565b60405180910390f35b61019b610f48565b6040516101a891906117d8565b60405180910390f35b6101b9610f4e565b6040516101c69190611852565b60405180910390f35b6101e960048036038101906101e491906116cf565b610f72565b005b610205600480360381019061020091906116cf565b610ff8565b60405161021695949392919061186d565b60405180910390f35b60036020528060005260406000206000915090508060000160009054906101000a900473ffffffffffffffffffffffffffffffffffffffff16908060010160009054906101000a900473ffffffffffffffffffffffffffffffffffffffff16908060020154908060030154908060040154908060050160009054906101000a900460ff16908060050160019054906101000a900460ff16905087565b6102c36110e3565b600073ffffffffffffffffffffffffffffffffffffffff16600260008673ffffffffffffffffffffffffffffffffffffffff1673ffffffffffffffffffffffffffffffffffffffff16815260200190815260200160002060000160009054906101000a900473ffffffffffffffffffffffffffffffffffffffff1673ffffffffffffffffffffffffffffffffffffffff161461038b576040517f36094cb400000000000000000000000000000000000000000000000000000000815260040160405180910390fd5b600081036103c5576040517f02bb065900000000000000000000000000000000000000000000000000000000815260040160405180910390fd5b6040518060a001604052808573ffffffffffffffffffffffffffffffffffffffff16815260200184848080601f016020809104026020016040519081016040528093929190818152602001838380828437600081840152601f19601f8201169050808301925050505050505081526020018281526020016001151581526020016000815250600260008673ffffffffffffffffffffffffffffffffffffffff1673ffffffffffffffffffffffffffffffffffffffff16815260200190815260200160002060008201518160000160006101000a81548173ffffffffffffffffffffffffffffffffffffffff021916908373ffffffffffffffffffffffffffffffffffffffff16021790555060208201518160010190816104e59190611af8565b506040820151816002015560608201518160030160006101000a81548160ff021916908315150217905550608082015181600401559050508373ffffffffffffffffffffffffffffffffffffffff167f023c5efe572c42192271951adb0e77f97d7fc84bc761d026189ac0861734682484848460405161056793929190611c06565b60405180910390a250505050565b61057d61116a565b60006003600083815260200190815260200160002090508060050160009054906101000a900460ff166105dc576040517feac2b39a00000000000000000000000000000000000000000000000000000000815260040160405180910390fd5b8060050160019054906101000a900460ff1615610625576040517f28a3297700000000000000000000000000000000000000000000000000000000815260040160405180910390fd5b8060010160009054906101000a900473ffffffffffffffffffffffffffffffffffffffff1673ffffffffffffffffffffffffffffffffffffffff163373ffffffffffffffffffffffffffffffffffffffff16141580156106b857506106886108ef565b73ffffffffffffffffffffffffffffffffffffffff163373ffffffffffffffffffffffffffffffffffffffff1614155b156106ef576040517fea8e4eb500000000000000000000000000000000000000000000000000000000815260040160405180910390fd5b60018160050160016101000a81548160ff02191690831515021790555060008160050160006101000a81548160ff0219169083151502179055508060040154600260008360010160009054906101000a900473ffffffffffffffffffffffffffffffffffffffff1673ffffffffffffffffffffffffffffffffffffffff1673ffffffffffffffffffffffffffffffffffffffff16815260200190815260200160002060040160008282546107a39190611c67565b9250508190555061081d8160010160009054906101000a900473ffffffffffffffffffffffffffffffffffffffff1682600401547f000000000000000000000000000000000000000000000000000000000000000073ffffffffffffffffffffffffffffffffffffffff166111b09092919063ffffffff16565b817fc3d21b7eecde9af9412ed2fd9e46c747dd0cae70ebb0ce011dd37f2fcadd7468826004015460405161085191906117d8565b60405180910390a28060010160009054906101000a900473ffffffffffffffffffffffffffffffffffffffff1673ffffffffffffffffffffffffffffffffffffffff167fdf20fd1e76bc69d672e4814fafb2c449bba3a5369d8359adf9e05e6fde87b05682600401546040516108c791906117d8565b60405180910390a2506108d861122f565b50565b6108e36110e3565b6108ed6000611238565b565b60008060009054906101000a900473ffffffffffffffffffffffffffffffffffffffff16905090565b61092061116a565b600260008373ffffffffffffffffffffffffffffffffffffffff1673ffffffffffffffffffffffffffffffffffffffff16815260200190815260200160002060030160009054906101000a900460ff166109a6576040517f486fcee200000000000000000000000000000000000000000000000000000000815260040160405180910390fd5b600081600260008573ffffffffffffffffffffffffffffffffffffffff1673ffffffffffffffffffffffffffffffffffffffff168152602001908152602001600020600201546109f69190611c9b565b9050807f000000000000000000000000000000000000000000000000000000000000000073ffffffffffffffffffffffffffffffffffffffff166370a08231336040518263ffffffff1660e01b8152600401610a529190611674565b602060405180830381865afa158015610a6f573d6000803e3d6000fd5b505050506040513d601f19601f82011682018060405250810190610a939190611cf2565b1015610acb576040517ff5410b3300000000000000000000000000000000000000000000000000000000815260040160405180910390fd5b807f000000000000000000000000000000000000000000000000000000000000000073ffffffffffffffffffffffffffffffffffffffff1663dd62ed3e33306040518363ffffffff1660e01b8152600401610b27929190611d1f565b602060405180830381865afa158015610b44573d6000803e3d6000fd5b505050506040513d601f19601f82011682018060405250810190610b689190611cf2565b1015610ba0576040517f13be252b00000000000000000000000000000000000000000000000000000000815260040160405180910390fd5b610bed3330837f000000000000000000000000000000000000000000000000000000000000000073ffffffffffffffffffffffffffffffffffffffff166112fc909392919063ffffffff16565b600060046000815480929190610c0290611d48565b9190505590506040518060e001604052803373ffffffffffffffffffffffffffffffffffffffff1681526020018573ffffffffffffffffffffffffffffffffffffffff168152602001428152602001848152602001838152602001600115158152602001600015158152506003600083815260200190815260200160002060008201518160000160006101000a81548173ffffffffffffffffffffffffffffffffffffffff021916908373ffffffffffffffffffffffffffffffffffffffff16021790555060208201518160010160006101000a81548173ffffffffffffffffffffffffffffffffffffffff021916908373ffffffffffffffffffffffffffffffffffffffff16021790555060408201518160020155606082015181600301556080820151816004015560a08201518160050160006101000a81548160ff02191690831515021790555060c08201518160050160016101000a81548160ff021916908315150217905550905050807fbdd10a5c52e1546e1781a1fdac9ff03aa5e7c996a04b51770ef0f0cb1e991fb3338685604051610da393929190611d90565b60405180910390a25050610db561122f565b5050565b6060600080600080600260008773ffffffffffffffffffffffffffffffffffffffff1673ffffffffffffffffffffffffffffffffffffffff1681526020019081526020016000206040518060a00160405290816000820160009054906101000a900473ffffffffffffffffffffffffffffffffffffffff1673ffffffffffffffffffffffffffffffffffffffff1673ffffffffffffffffffffffffffffffffffffffff168152602001600182018054610e7190611925565b80601f0160208091040260200160405190810160405280929190818152602001828054610e9d90611925565b8015610eea5780601f10610ebf57610100808354040283529160200191610eea565b820191906000526020600020905b815481529060010190602001808311610ecd57829003601f168201915b50505050508152602001600282015481526020016003820160009054906101000a900460ff16151515158152602001600482015481525050905080602001518160400151826060015183608001519450945094509450509193509193565b60045481565b7f000000000000000000000000000000000000000000000000000000000000000081565b610f7a6110e3565b600073ffffffffffffffffffffffffffffffffffffffff168173ffffffffffffffffffffffffffffffffffffffff1603610fec5760006040517f1e4fbdf7000000000000000000000000000000000000000000000000000000008152600401610fe39190611674565b60405180910390fd5b610ff581611238565b50565b60026020528060005260406000206000915090508060000160009054906101000a900473ffffffffffffffffffffffffffffffffffffffff169080600101805461104190611925565b80601f016020809104026020016040519081016040528092919081815260200182805461106d90611925565b80156110ba5780601f1061108f576101008083540402835291602001916110ba565b820191906000526020600020905b81548152906001019060200180831161109d57829003601f168201915b5050505050908060020154908060030160009054906101000a900460ff16908060040154905085565b6110eb61137e565b73ffffffffffffffffffffffffffffffffffffffff166111096108ef565b73ffffffffffffffffffffffffffffffffffffffff16146111685761112c61137e565b6040517f118cdaa700000000000000000000000000000000000000000000000000000000815260040161115f9190611674565b60405180910390fd5b565b6002600154036111a6576040517f3ee5aeb500000000000000000000000000000000000000000000000000000000815260040160405180910390fd5b6002600181905550565b61122a838473ffffffffffffffffffffffffffffffffffffffff1663a9059cbb85856040516024016111e3929190611dc7565b604051602081830303815290604052915060e01b6020820180517bffffffffffffffffffffffffffffffffffffffffffffffffffffffff8381831617835250505050611386565b505050565b60018081905550565b60008060009054906101000a900473ffffffffffffffffffffffffffffffffffffffff169050816000806101000a81548173ffffffffffffffffffffffffffffffffffffffff021916908373ffffffffffffffffffffffffffffffffffffffff1602179055508173ffffffffffffffffffffffffffffffffffffffff168173ffffffffffffffffffffffffffffffffffffffff167f8be0079c531659141344cd1fd0a4f28419497f9722a3daafe3b4186f6b6457e060405160405180910390a35050565b611378848573ffffffffffffffffffffffffffffffffffffffff166323b872dd86868660405160240161133193929190611d90565b604051602081830303815290604052915060e01b6020820180517bffffffffffffffffffffffffffffffffffffffffffffffffffffffff8381831617835250505050611386565b50505050565b600033905090565b600080602060008451602086016000885af1806113a9576040513d6000823e3d81fd5b3d9250600051915050600082146113c45760018114156113e0565b60008473ffffffffffffffffffffffffffffffffffffffff163b145b1561142257836040517f5274afe70000000000000000000000000000000000000000000000000000000081526004016114199190611674565b60405180910390fd5b50505050565b600080fd5b600080fd5b6000819050919050565b61144581611432565b811461145057600080fd5b50565b6000813590506114628161143c565b92915050565b60006020828403121561147e5761147d611428565b5b600061148c84828501611453565b91505092915050565b600073ffffffffffffffffffffffffffffffffffffffff82169050919050565b60006114c082611495565b9050919050565b6114d0816114b5565b82525050565b6114df81611432565b82525050565b60008115159050919050565b6114fa816114e5565b82525050565b600060e082019050611515600083018a6114c7565b61152260208301896114c7565b61152f60408301886114d6565b61153c60608301876114d6565b61154960808301866114d6565b61155660a08301856114f1565b61156360c08301846114f1565b98975050505050505050565b611578816114b5565b811461158357600080fd5b50565b6000813590506115958161156f565b92915050565b600080fd5b600080fd5b600080fd5b60008083601f8401126115c0576115bf61159b565b5b8235905067ffffffffffffffff8111156115dd576115dc6115a0565b5b6020830191508360018202830111156115f9576115f86115a5565b5b9250929050565b6000806000806060858703121561161a57611619611428565b5b600061162887828801611586565b945050602085013567ffffffffffffffff8111156116495761164861142d565b5b611655878288016115aa565b9350935050604061166887828801611453565b91505092959194509250565b600060208201905061168960008301846114c7565b92915050565b600080604083850312156116a6576116a5611428565b5b60006116b485828601611586565b92505060206116c585828601611453565b9150509250929050565b6000602082840312156116e5576116e4611428565b5b60006116f384828501611586565b91505092915050565b600081519050919050565b600082825260208201905092915050565b60005b8381101561173657808201518184015260208101905061171b565b60008484015250505050565b6000601f19601f8301169050919050565b600061175e826116fc565b6117688185611707565b9350611778818560208601611718565b61178181611742565b840191505092915050565b600060808201905081810360008301526117a68187611753565b90506117b560208301866114d6565b6117c260408301856114f1565b6117cf60608301846114d6565b95945050505050565b60006020820190506117ed60008301846114d6565b92915050565b6000819050919050565b600061181861181361180e84611495565b6117f3565b611495565b9050919050565b600061182a826117fd565b9050919050565b600061183c8261181f565b9050919050565b61184c81611831565b82525050565b60006020820190506118676000830184611843565b92915050565b600060a08201905061188260008301886114c7565b81810360208301526118948187611753565b90506118a360408301866114d6565b6118b060608301856114f1565b6118bd60808301846114d6565b9695505050505050565b7f4e487b7100000000000000000000000000000000000000000000000000000000600052604160045260246000fd5b7f4e487b7100000000000000000000000000000000000000000000000000000000600052602260045260246000fd5b6000600282049050600182168061193d57607f821691505b6020821081036119505761194f6118f6565b5b50919050565b60008190508160005260206000209050919050565b60006020601f8301049050919050565b600082821b905092915050565b6000600883026119b87fffffffffffffffffffffffffffffffffffffffffffffffffffffffffffffffff8261197b565b6119c2868361197b565b95508019841693508086168417925050509392505050565b60006119f56119f06119eb84611432565b6117f3565b611432565b9050919050565b6000819050919050565b611a0f836119da565b611a23611a1b826119fc565b848454611988565b825550505050565b600090565b611a38611a2b565b611a43818484611a06565b505050565b5b81811015611a6757611a5c600082611a30565b600181019050611a49565b5050565b601f821115611aac57611a7d81611956565b611a868461196b565b81016020851015611a95578190505b611aa9611aa18561196b565b830182611a48565b50505b505050565b600082821c905092915050565b6000611acf60001984600802611ab1565b1980831691505092915050565b6000611ae88383611abe565b9150826002028217905092915050565b611b01826116fc565b67ffffffffffffffff811115611b1a57611b196118c7565b5b611b248254611925565b611b2f828285611a6b565b600060209050601f831160018114611b625760008415611b50578287015190505b611b5a8582611adc565b865550611bc2565b601f198416611b7086611956565b60005b82811015611b9857848901518255600182019150602085019450602081019050611b73565b86831015611bb55784890151611bb1601f891682611abe565b8355505b6001600288020188555050505b505050505050565b82818337600083830152505050565b6000611be58385611707565b9350611bf2838584611bca565b611bfb83611742565b840190509392505050565b60006040820190508181036000830152611c21818587611bd9565b9050611c3060208301846114d6565b949350505050565b7f4e487b7100000000000000000000000000000000000000000000000000000000600052601160045260246000fd5b6000611c7282611432565b9150611c7d83611432565b9250828201905080821115611c9557611c94611c38565b5b92915050565b6000611ca682611432565b9150611cb183611432565b9250828202611cbf81611432565b91508282048414831517611cd657611cd5611c38565b5b5092915050565b600081519050611cec8161143c565b92915050565b600060208284031215611d0857611d07611428565b5b6000611d1684828501611cdd565b91505092915050565b6000604082019050611d3460008301856114c7565b611d4160208301846114c7565b9392505050565b6000611d5382611432565b91507fffffffffffffffffffffffffffffffffffffffffffffffffffffffffffffffff8203611d8557611d84611c38565b5b600182019050919050565b6000606082019050611da560008301866114c7565b611db260208301856114c7565b611dbf60408301846114d6565b949350505050565b6000604082019050611ddc60008301856114c7565b611de960208301846114d6565b939250505056fea164736f6c634300081c000a",
  "linkReferences": {},
  "deployedLinkReferences": {}
}