{
  "contracts/Lock.sol": {
    "Lock": {
      "abi": [
        {
          "inputs": [
            {
              "internalType": "uint256",
              "name": "_unlockTime",
              "type": "uint256"
            }
          ],
          "stateMutability": "payable",
          "type": "constructor"
        },
        {
          "anonymous": false,
          "inputs": [
            {
              "indexed": false,
              "internalType": "uint256",
              "name": "amount",
              "type": "uint256"
            },
            {
              "indexed": false,
              "internalType": "uint256",
              "name": "when",
              "type": "uint256"
            }
          ],
          "name": "Withdrawal",
          "type": "event"
        },
        {
          "inputs": [],
          "name": "owner",
          "outputs": [
            {
              "internalType": "address payable",
              "name": "",
              "type": "address"
            }
          ],
          "stateMutability": "view",
          "type": "function"
        },
        {
          "inputs": [],
          "name": "unlockTime",
          "outputs": [
            {
              "internalType": "uint256",
              "name": "",
              "type": "uint256"
            }
          ],
          "stateMutability": "view",
          "type": "function"
        },
        {
          "inputs": [],
          "name": "withdraw",
          "outputs": [],
          "stateMutability": "nonpayable",
          "type": "function"
        }
      ],
      "evm": {
        "bytecode": {
          "linkReferences": {},
          "object": "60806040526040516105af3803806105af833981810160405281019061002591906100f0565b804210610067576040517f08c379a000000000000000000000000000000000000000000000000000000000815260040161005e906101a0565b60405180910390fd5b8060008190555033600160006101000a81548173ffffffffffffffffffffffffffffffffffffffff021916908373ffffffffffffffffffffffffffffffffffffffff160217905550506101c0565b600080fd5b6000819050919050565b6100cd816100ba565b81146100d857600080fd5b50565b6000815190506100ea816100c4565b92915050565b600060208284031215610106576101056100b5565b5b6000610114848285016100db565b91505092915050565b600082825260208201905092915050565b7f556e6c6f636b2074696d652073686f756c6420626520696e207468652066757460008201527f7572650000000000000000000000000000000000000000000000000000000000602082015250565b600061018a60238361011d565b91506101958261012e565b604082019050919050565b600060208201905081810360008301526101b98161017d565b9050919050565b6103e0806101cf6000396000f3fe608060405234801561001057600080fd5b50600436106100415760003560e01c8063251c1aa3146100465780633ccfd60b146100645780638da5cb5b1461006e575b600080fd5b61004e61008c565b60405161005b919061024a565b60405180910390f35b61006c610092565b005b61007661020b565b60405161008391906102a6565b60405180910390f35b60005481565b6000544210156100d7576040517f08c379a00000000000000000000000000000000000000000000000000000000081526004016100ce9061031e565b60405180910390fd5b600160009054906101000a900473ffffffffffffffffffffffffffffffffffffffff1673ffffffffffffffffffffffffffffffffffffffff163373ffffffffffffffffffffffffffffffffffffffff1614610167576040517f08c379a000000000000000000000000000000000000000000000000000000000815260040161015e9061038a565b60405180910390fd5b7fbf2ed60bd5b5965d685680c01195c9514e4382e28e3a5a2d2d5244bf59411b9347426040516101989291906103aa565b60405180910390a1600160009054906101000a900473ffffffffffffffffffffffffffffffffffffffff1673ffffffffffffffffffffffffffffffffffffffff166108fc479081150290604051600060405180830381858888f19350505050158015610208573d6000803e3d6000fd5b50565b600160009054906101000a900473ffffffffffffffffffffffffffffffffffffffff1681565b6000819050919050565b61024481610231565b82525050565b600060208201905061025f600083018461023b565b92915050565b600073ffffffffffffffffffffffffffffffffffffffff82169050919050565b600061029082610265565b9050919050565b6102a081610285565b82525050565b60006020820190506102bb6000830184610297565b92915050565b600082825260208201905092915050565b7f596f752063616e27742077697468647261772079657400000000000000000000600082015250565b60006103086016836102c1565b9150610313826102d2565b602082019050919050565b60006020820190508181036000830152610337816102fb565b9050919050565b7f596f75206172656e277420746865206f776e6572000000000000000000000000600082015250565b60006103746014836102c1565b915061037f8261033e565b602082019050919050565b600060208201905081810360008301526103a381610367565b9050919050565b60006040820190506103bf600083018561023b565b6103cc602083018461023b565b939250505056fea164736f6c634300081c000a",
          "opcodes": "PUSH1 0x80 PUSH1 0x40 MSTORE PUSH1 0x40 MLOAD PUSH2 0x5AF CODESIZE SUB DUP1 PUSH2 0x5AF DUP4 CODECOPY DUP2 DUP2 ADD PUSH1 0x40 MSTORE DUP2 ADD SWAP1 PUSH2 0x25 SWAP2 SWAP1 PUSH2 0xF0 JUMP JUMPDEST DUP1 TIMESTAMP LT PUSH2 0x67 JUMPI PUSH1 0x40 MLOAD PUSH32 0x8C379A000000000000000000000000000000000000000000000000000000000 DUP2 MSTORE PUSH1 0x4 ADD PUSH2 0x5E SWAP1 PUSH2 0x1A0 JUMP JUMPDEST PUSH1 0x40 MLOAD DUP1 SWAP2 SUB SWAP1 REVERT JUMPDEST DUP1 PUSH1 0x0 DUP2 SWAP1 SSTORE POP CALLER PUSH1 0x1 PUSH1 0x0 PUSH2 0x100 EXP DUP2 SLOAD DUP2 PUSH20 0xFFFFFFFFFFFFFFFFFFFFFFFFFFFFFFFFFFFFFFFF MUL NOT AND SWAP1 DUP4 PUSH20 0xFFFFFFFFFFFFFFFFFFFFFFFFFFFFFFFFFFFFFFFF AND MUL OR SWAP1 SSTORE POP POP PUSH2 0x1C0 JUMP JUMPDEST PUSH1 0x0 DUP1 REVERT JUMPDEST PUSH1 0x0 DUP2 SWAP1 POP SWAP2 SWAP1 POP JUMP JUMPDEST PUSH2 0xCD DUP2 PUSH2 0xBA JUMP JUMPDEST DUP2 EQ PUSH2 0xD8 JUMPI PUSH1 0x0 DUP1 REVERT JUMPDEST POP JUMP JUMPDEST PUSH1 0x0 DUP2 MLOAD SWAP1 POP PUSH2 0xEA DUP2 PUSH2 0xC4 JUMP JUMPDEST SWAP3 SWAP2 POP POP JUMP JUMPDEST PUSH1 0x0 PUSH1 0x20 DUP3 DUP5 SUB SLT ISZERO PUSH2 0x106 JUMPI PUSH2 0x105 PUSH2 0xB5 JUMP JUMPDEST JUMPDEST PUSH1 0x0 PUSH2 0x114 DUP5 DUP3 DUP6 ADD PUSH2 0xDB JUMP JUMPDEST SWAP2 POP POP SWAP3 SWAP2 POP POP JUMP JUMPDEST PUSH1 0x0 DUP3 DUP3 MSTORE PUSH1 0x20 DUP3 ADD SWAP1 POP SWAP3 SWAP2 POP POP JUMP JUMPDEST PUSH32 0x556E6C6F636B2074696D652073686F756C6420626520696E2074686520667574 PUSH1 0x0 DUP3 ADD MSTORE PUSH32 0x7572650000000000000000000000000000000000000000000000000000000000 PUSH1 0x20 DUP3 ADD MSTORE POP JUMP JUMPDEST PUSH1 0x0 PUSH2 0x18A PUSH1 0x23 DUP4 PUSH2 0x11D JUMP JUMPDEST SWAP2 POP PUSH2 0x195 DUP3 PUSH2 0x12E JUMP JUMPDEST PUSH1 0x40 DUP3 ADD SWAP1 POP SWAP2 SWAP1 POP JUMP JUMPDEST PUSH1 0x0 PUSH1 0x20 DUP3 ADD SWAP1 POP DUP2 DUP2 SUB PUSH1 0x0 DUP4 ADD MSTORE PUSH2 0x1B9 DUP2 PUSH2 0x17D JUMP JUMPDEST SWAP1 POP SWAP2 SWAP1 POP JUMP JUMPDEST PUSH2 0x3E0 DUP1 PUSH2 0x1CF PUSH1 0x0 CODECOPY PUSH1 0x0 RETURN INVALID PUSH1 0x80 PUSH1 0x40 MSTORE CALLVALUE DUP1 ISZERO PUSH2 0x10 JUMPI PUSH1 0x0 DUP1 REVERT JUMPDEST POP PUSH1 0x4 CALLDATASIZE LT PUSH2 0x41 JUMPI PUSH1 0x0 CALLDATALOAD PUSH1 0xE0 SHR DUP1 PUSH4 0x251C1AA3 EQ PUSH2 0x46 JUMPI DUP1 PUSH4 0x3CCFD60B EQ PUSH2 0x64 JUMPI DUP1 PUSH4 0x8DA5CB5B EQ PUSH2 0x6E JUMPI JUMPDEST PUSH1 0x0 DUP1 REVERT JUMPDEST PUSH2 0x4E PUSH2 0x8C JUMP JUMPDEST PUSH1 0x40 MLOAD PUSH2 0x5B SWAP2 SWAP1 PUSH2 0x24A JUMP JUMPDEST PUSH1 0x40 MLOAD DUP1 SWAP2 SUB SWAP1 RETURN JUMPDEST PUSH2 0x6C PUSH2 0x92 JUMP JUMPDEST STOP JUMPDEST PUSH2 0x76 PUSH2 0x20B JUMP JUMPDEST PUSH1 0x40 MLOAD PUSH2 0x83 SWAP2 SWAP1 PUSH2 0x2A6 JUMP JUMPDEST PUSH1 0x40 MLOAD DUP1 SWAP2 SUB SWAP1 RETURN JUMPDEST PUSH1 0x0 SLOAD DUP2 JUMP JUMPDEST PUSH1 0x0 SLOAD TIMESTAMP LT ISZERO PUSH2 0xD7 JUMPI PUSH1 0x40 MLOAD PUSH32 0x8C379A000000000000000000000000000000000000000000000000000000000 DUP2 MSTORE PUSH1 0x4 ADD PUSH2 0xCE SWAP1 PUSH2 0x31E JUMP JUMPDEST PUSH1 0x40 MLOAD DUP1 SWAP2 SUB SWAP1 REVERT JUMPDEST PUSH1 0x1 PUSH1 0x0 SWAP1 SLOAD SWAP1 PUSH2 0x100 EXP SWAP1 DIV PUSH20 0xFFFFFFFFFFFFFFFFFFFFFFFFFFFFFFFFFFFFFFFF AND PUSH20 0xFFFFFFFFFFFFFFFFFFFFFFFFFFFFFFFFFFFFFFFF AND CALLER PUSH20 0xFFFFFFFFFFFFFFFFFFFFFFFFFFFFFFFFFFFFFFFF AND EQ PUSH2 0x167 JUMPI PUSH1 0x40 MLOAD PUSH32 0x8C379A000000000000000000000000000000000000000000000000000000000 DUP2 MSTORE PUSH1 0x4 ADD PUSH2 0x15E SWAP1 PUSH2 0x38A JUMP JUMPDEST PUSH1 0x40 MLOAD DUP1 SWAP2 SUB SWAP1 REVERT JUMPDEST PUSH32 0xBF2ED60BD5B5965D685680C01195C9514E4382E28E3A5A2D2D5244BF59411B93 SELFBALANCE TIMESTAMP PUSH1 0x40 MLOAD PUSH2 0x198 SWAP3 SWAP2 SWAP1 PUSH2 0x3AA JUMP JUMPDEST PUSH1 0x40 MLOAD DUP1 SWAP2 SUB SWAP1 LOG1 PUSH1 0x1 PUSH1 0x0 SWAP1 SLOAD SWAP1 PUSH2 0x100 EXP SWAP1 DIV PUSH20 0xFFFFFFFFFFFFFFFFFFFFFFFFFFFFFFFFFFFFFFFF AND PUSH20 0xFFFFFFFFFFFFFFFFFFFFFFFFFFFFFFFFFFFFFFFF AND PUSH2 0x8FC SELFBALANCE SWAP1 DUP2 ISZERO MUL SWAP1 PUSH1 0x40 MLOAD PUSH1 0x0 PUSH1 0x40 MLOAD DUP1 DUP4 SUB DUP2 DUP6 DUP9 DUP9 CALL SWAP4 POP POP POP POP ISZERO DUP1 ISZERO PUSH2 0x208 JUMPI RETURNDATASIZE PUSH1 0x0 DUP1 RETURNDATACOPY RETURNDATASIZE PUSH1 0x0 REVERT JUMPDEST POP JUMP JUMPDEST PUSH1 0x1 PUSH1 0x0 SWAP1 SLOAD SWAP1 PUSH2 0x100 EXP SWAP1 DIV PUSH20 0xFFFFFFFFFFFFFFFFFFFFFFFFFFFFFFFFFFFFFFFF AND DUP2 JUMP JUMPDEST PUSH1 0x0 DUP2 SWAP1 POP SWAP2 SWAP1 POP JUMP JUMPDEST PUSH2 0x244 DUP2 PUSH2 0x231 JUMP JUMPDEST DUP3 MSTORE POP POP JUMP JUMPDEST PUSH1 0x0 PUSH1 0x20 DUP3 ADD SWAP1 POP PUSH2 0x25F PUSH1 0x0 DUP4 ADD DUP5 PUSH2 0x23B JUMP JUMPDEST SWAP3 SWAP2 POP POP JUMP JUMPDEST PUSH1 0x0 PUSH20 0xFFFFFFFFFFFFFFFFFFFFFFFFFFFFFFFFFFFFFFFF DUP3 AND SWAP1 POP SWAP2 SWAP1 POP JUMP JUMPDEST PUSH1 0x0 PUSH2 0x290 DUP3 PUSH2 0x265 JUMP JUMPDEST SWAP1 POP SWAP2 SWAP1 POP JUMP JUMPDEST PUSH2 0x2A0 DUP2 PUSH2 0x285 JUMP JUMPDEST DUP3 MSTORE POP POP JUMP JUMPDEST PUSH1 0x0 PUSH1 0x20 DUP3 ADD SWAP1 POP PUSH2 0x2BB PUSH1 0x0 DUP4 ADD DUP5 PUSH2 0x297 JUMP JUMPDEST SWAP3 SWAP2 POP POP JUMP JUMPDEST PUSH1 0x0 DUP3 DUP3 MSTORE PUSH1 0x20 DUP3 ADD SWAP1 POP SWAP3 SWAP2 POP POP JUMP JUMPDEST PUSH32 0x596F752063616E27742077697468647261772079657400000000000000000000 PUSH1 0x0 DUP3 ADD MSTORE POP JUMP JUMPDEST PUSH1 0x0 PUSH2 0x308 PUSH1 0x16 DUP4 PUSH2 0x2C1 JUMP JUMPDEST SWAP2 POP PUSH2 0x313 DUP3 PUSH2 0x2D2 JUMP JUMPDEST PUSH1 0x20 DUP3 ADD SWAP1 POP SWAP2 SWAP1 POP JUMP JUMPDEST PUSH1 0x0 PUSH1 0x20 DUP3 ADD SWAP1 POP DUP2 DUP2 SUB PUSH1 0x0 DUP4 ADD MSTORE PUSH2 0x337 DUP2 PUSH2 0x2FB JUMP JUMPDEST SWAP1 POP SWAP2 SWAP1 POP JUMP JUMPDEST PUSH32 0x596F75206172656E277420746865206F776E6572000000000000000000000000 PUSH1 0x0 DUP3 ADD MSTORE POP JUMP JUMPDEST PUSH1 0x0 PUSH2 0x374 PUSH1 0x14 DUP4 PUSH2 0x2C1 JUMP JUMPDEST SWAP2 POP PUSH2 0x37F DUP3 PUSH2 0x33E JUMP JUMPDEST PUSH1 0x20 DUP3 ADD SWAP1 POP SWAP2 SWAP1 POP JUMP JUMPDEST PUSH1 0x0 PUSH1 0x20 DUP3 ADD SWAP1 POP DUP2 DUP2 SUB PUSH1 0x0 DUP4 ADD MSTORE PUSH2 0x3A3 DUP2 PUSH2 0x367 JUMP JUMPDEST SWAP1 POP SWAP2 SWAP1 POP JUMP JUMPDEST PUSH1 0x0 PUSH1 0x40 DUP3 ADD SWAP1 POP PUSH2 0x3BF PUSH1 0x0 DUP4 ADD DUP6 PUSH2 0x23B JUMP JUMPDEST PUSH2 0x3CC PUSH1 0x20 DUP4 ADD DUP5 PUSH2 0x23B JUMP JUMPDEST SWAP4 SWAP3 POP POP POP JUMP INVALID LOG1 PUSH5 0x736F6C6343 STOP ADDMOD SHR STOP EXP "
        },
        "methodIdentifiers": {
          "owner()": "8da5cb5b",
          "unlockTime()": "251c1aa3",
          "withdraw()": "3ccfd60b"
        }
      }
    }
  }
}